:103800000C942A1C0C94471C0C94471C0C94471CC9
:103810000C94471C0C94471C0C94471C0C94471C9C
:103820000C94471C0C94471C0C94471C0C94471C8C
:103830000C94471C0C94471C0C94471C0C94471C7C
:103840000C94471C0C94471C0C94471C0C94471C6C
:103850000C94471C11241FBECFE5D4E0DEBFCDBFC2
:1038600010E0A0E6B0E0E4E5FEE302C005900D92B2
:10387000A236B107D9F711E0A2E6B0E001C01D926F
:10388000AD36B107E1F70E94011D0C94281F0C947E
:10389000001C982F92959F709A3010F0995A01C091
:1038A000905D8F708A3010F0895A01C0805D5D9BF9
:1038B000FECF9CB95D9BFECF8CB908955D9BFECF7A
:1038C0008CB9089540E951E013C0AE9A20ED37E07D
:1038D000FA013197F1F721503040D1F7AE9820ED41
:1038E00037E0FA013197F1F721503040D1F781509C
:1038F000882359F70895EF92FF920F931F93EE24B8
:10390000FF2487011AC00894E11CF11C011D111D40
:1039100081E4E81682E4F8068FE0080780E01807E3
:1039200018F081E00E94621CB39907C0A69AAE9A73
:10393000E0916400F091650009955F9BE4CF8CB144
:103940001F910F91FF90EF9008950E947B1C803291
:1039500049F45D9BFECF84E18CB95D9BFECF80E195
:103960008CB90895809163008F5F809363008530E8
:1039700029F4E0916400F0916500099508951F9382
:10398000182F0E947B1C803261F45D9BFECF84E186
:103990008CB95D9BFECF1CB95D9BFECF80E18CB9DD
:1039A0000CC0809163008F5F80936300853029F4A1
:1039B000E0916400F091650009951F9108951F93AF
:1039C000182F03C00E947B1C11501123D9F71F919F
:1039D00008950E947B1C5D9BFECF8CB9813610F050
:1039E00087550895803308F0805308951F930E94EF
:1039F000E91C182F0E94E91C1295107F810F1F915E
:103A000008952F923F924F925F926F927F928F9282
:103A10009F92AF92BF92CF92DF92EF92FF920F935D
:103A20001F93CF93DF9300001BB888E18AB986E823
:103A300080BD10BC80E189B9BB9AC39A8E9A969AD0
:103A4000A69A81E00E94621C14E1812EBEE12B2E19
:103A5000A0E19A2EF2E57F2EE0E26E2E79E4572E59
:103A600063E5462E50E5352E0E947B1C803309F419
:103A700046C0813311F50E947B1C803209F0C5C11C
:103A80005D9BFECF8CB85D9BFECF81E48CB95D9BC6
:103A9000FECF86E58CB95D9BFECF7CB85D9BFECFEB
:103AA0006CB85D9BFECF5CB85D9BFECF4CB85D9B58
:103AB000FECF3CB85D9BFECFA0C1803439F40E949C
:103AC0007B1C8638E0F00E947B1C19C0813491F485
:103AD0000E947B1C803811F482E094C1813811F47B
:103AE00081E090C1823811F480E18CC1883909F0FD
:103AF00088C132C0823431F484E10E94DF1C0E940C
:103B0000A51CB2CF853411F485E0F7CF8035B9F329
:103B10008235A9F3813599F3853549F40E947B1CE0
:103B2000809366000E947B1C80936700E8CF8635F7
:103B3000C9F40E947B1C803389F40E947B1C0E9484
:103B40007B1C182F0E947B1C112311F48EE15AC19B
:103B5000113011F484E956C183E054C183E00E941E
:103B6000DF1C4FC1843609F0CCC00E947B1C8093BF
:103B700069010E947B1C8093680180916C018E7F9B
:103B800080936C010E947B1C853429F480916C0128
:103B9000816080936C0100E010E008C00E947B1CF3
:103BA000F801E859FF4F80830F5F1F4F8091680134
:103BB000909169010817190788F30E947B1C8032D5
:103BC00009F023C180916C0180FF2AC080916600BA
:103BD00090916700880F991F90936700809366000B
:103BE00000E010E015C0F801E859FF4F8091660031
:103BF0009091670060810E941B1F809166009091E8
:103C00006700019690936700809366000F5F1F4FD7
:103C100080916801909169010817190720F36BC022
:103C2000809167008823880F880B817080936B01D7
:103C30008091660090916700880F991F90936700AC
:103C4000809366008091680180FF09C080916801BF
:103C50009091690101969093690180936801F894AD
:103C6000E199FECF1127E0916600F0916700C8E668
:103C7000D0E08091680190916901103091F4009139
:103C8000570001700130D9F303E000935700E89525
:103C90000091570001700130D9F301E10093570002
:103CA000E895099019900091570001700130D9F3FF
:103CB00001E000935700E8951395103498F0112710
:103CC0000091570001700130D9F305E000935700CF
:103CD000E8950091570001700130D9F301E100939C
:103CE0005700E8953296029709F0C7CF103011F0CF
:103CF0000296E5CF11245D9BFECF8CB85D9BFECF75
:103D00007CC0843709F063C00E947B1C80936901EA
:103D10000E947B1C809368018091660090916700EF
:103D2000880F991F90936700809366000E947B1C08
:103D300090916C01853411F4916001C09E7F909345
:103D40006C010E947B1C803209F08ECE5D9BFECF01
:103D50008CB8C0906801D090690180916C01AA2450
:103D6000A394A82292E0B92EB822EE24FF2429C001
:103D7000AA2089F00091660010916700C8010E9496
:103D8000131F5D9BFECF8CB90F5F1F4F1093670011
:103D90000093660013C0BB2041F4E0916600F091EF
:103DA000670084915D9BFECF8CB9809166009091F5
:103DB0006700019690936700809366000894E11C69
:103DC000F11CEC14FD04A0F25D9BFECF16C08537FC
:103DD000B1F40E947B1C8032C1F45D9BFECF8CB895
:103DE0005D9BFECF2CB85D9BFECF84E98CB95D9BBB
:103DF000FECF83E08CB95D9BFECF9CB835CE863775
:103E000021F480E00E94BF1C2FCE809163008F5F61
:103E100080936300853009F027CEE0916400F09133
:103E20006500099521CEE199FECF9FBB8EBBE09A3C
:103E300099278DB30895262FE199FECF9FBB8EBBA6
:103E40002DBB0FB6F894E29AE19A0FBE0196089541
:043E5000F894FFCF14
:023E54008000EC
:0400000300003800C1
:00000001FF
