:020000021000EC
:10F000000C9446F80C9465F80C9465F80C9465F82B
:10F010000C9465F80C9465F80C9465F80C9465F8FC
:10F020000C9465F80C9465F80C9465F80C9465F8EC
:10F030000C9465F80C9465F80C9465F80C9465F8DC
:10F040000C9465F80C9465F80C9465F80C9465F8CC
:10F050000C9465F80C9465F80C9465F80C9465F8BC
:10F060000C9465F80C9465F80C9465F80C9465F8AC
:10F070000C9465F80C9465F80C9465F80C9465F89C
:10F080000C9465F80C9465F80C9465F811241FBE77
:10F09000CFEFD0E1DEBFCDBF11E0A0E0B1E0E0E115
:10F0A000F9EF01E00BBF02C007900D92A230B1074B
:10F0B000D9F712E0A2E0B1E001C01D92AC30B10777
:10F0C000E1F70E948CF90C9486FC0C9400F8982FC0
:10F0D00080910101813019F0823029F008955D9B03
:10F0E000FECF9CB9089580919B0085FFFCCF909343
:10F0F0009C0008951F93982F9595959595959595B6
:10F10000905D8F708A3054F4182F105D892F0E9403
:10F1100067F8812F0E9467F81F910895182F195AD8
:10F12000892F0E9467F8812F0E9467F81F91089528
:10F13000982F20910101992339F0213031F02230AC
:10F1400049F091509923C9F708955F9BFECF8CB188
:10F150009150F8CF80919B0087FFFCCF80919C005D
:10F160009150F0CF40E951E08823A1F0AB9A20ED17
:10F1700037E0FA013197F1F721503040D1F7AB98E1
:10F1800020ED37E0FA013197F1F721503040D1F707
:10F19000815061F70895EF92FF920F931F93809132
:10F1A0000101813089F1823031F080E01F910F91AF
:10F1B000FF90EF900895EE24FF24870180919B003B
:10F1C00087FD1BC00894E11CF11C011D111D81E489
:10F1D000E81682E4F8068FE0080780E0180770F36D
:10F1E000AD9AA59AA39AAB9AE0910301F09104011C
:10F1F000099580919B0087FFE5CF80919C001F912E
:10F200000F91FF90EF900895EE24FF2487015F99FE
:10F210001EC00894E11CF11C011D111D81E4E816BB
:10F2200082E4F8068FE0080780E0180780F381E0A9
:10F230000E94B2F89C99EBCFAD9AA59AA39AAB9A8B
:10F24000E0910301F091040109955F9BE2CF8CB13D
:10F250001F910F91FF90EF9008950E94CBF880329C
:10F2600091F0809102018F5F80930201853009F057
:10F270000895AD9AA59AA39AAB9AE0910301F091F3
:10F2800004010995089584E10E9467F880E10E94D5
:10F2900067F808951F93182F0E94CBF88032A1F0D1
:10F2A000809102018F5F80930201853011F01F91E0
:10F2B0000895AD9AA59AA39AAB9AE0910301F091B3
:10F2C000040109951F91089584E10E9467F8812F38
:10F2D0000E9467F880E10E9467F81F9108951F93CC
:10F2E0000E94CBF8182F0E9467F8113634F41033BF
:10F2F0000CF01053812F1F9108951755812F1F91E6
:10F3000008951F930E946FF9182F0E946FF91295AC
:10F31000107F810F1F910895CF92DF92EF92FF929D
:10F320000F931F93CF93DF93000081E0809301013F
:10F3300080E189B9109290001BB888E98AB986E803
:10F3400080939500A39AFF24F3940E94CBF8803316
:10F35000E9F18133F1F1803409F45BC0813409F4BF
:10F3600061C0823409F46FC0853409F472C08035FD
:10F3700069F1823559F1813549F1853509F46FC05C
:10F38000863509F477C0843609F490C0843709F4CF
:10F39000F6C0853709F45AC1863709F450C0813266
:10F3A00009F46DC1809102018F5F80930201853065
:10F3B00061F6AD9AA59AA39AAB9AE0910301F091F8
:10F3C000040109950E94CBF8803319F60E942DF9AB
:10F3D000BCCF0E94CBF8803229F784E10E9467F805
:10F3E00081E40E9467F886E50E9467F882E50E9442
:10F3F00067F880E20E9467F889E40E9467F883E575
:10F400000E9467F880E50E9467F880E10E9467F833
:10F410009CCF0E94CBF88638C8F20E94CBF80E949D
:10F420002DF993CF0E94CBF88038E1F1813809F4AF
:10F4300009C1823809F41FC1883909F49CC080E0F1
:10F440000E944AF982CF84E10E9498F80E942DF927
:10F450007CCF85E00E9498F80E942DF976CF0E941B
:10F46000CBF8809305010E94CBF8809306010E949F
:10F470002DF96BCF0E94CBF8803339F083E00E94E6
:10F4800098F880E00E944AF960CF0E94CBF80E9471
:10F49000CBF8182F0E94CBF8112309F4C3C1113007
:10F4A00009F437C182E00E944AF94FCF0E94CBF89D
:10F4B000809308020E94CBF88093070280910B0290
:10F4C0008E7F80930B020E94CBF8853409F425C10E
:10F4D0008091070290910802892B89F000E010E0EA
:10F4E0000E94CBF8F801E95FFE4F80830F5F1F4F4A
:10F4F00080910702909108020817190788F30E946B
:10F50000CBF8803209F04ECF80910B0280FF17C1FB
:10F510002091050130910601220F331F309306011F
:10F52000209305018091070290910802892BE1F058
:10F5300000E010E0F801E95FFE4FC90160810E9420
:10F5400079FC20910501309106012F5F3F4F3093E8
:10F550000601209305010F5F1F4F809107029091D4
:10F5600008020817190730F384E10E9467F880E168
:10F570000E9467F8EACE83E00E944AF9E6CE0E9434
:10F58000CBF8809308020E94CBF880930702209169
:10F5900005013091060137FDC6C080910B028D7FB9
:10F5A00080930B02220F331F309306012093050135
:10F5B0000E94CBF8853409F4BCC080910B028E7F89
:10F5C00080930B020E94CBF8803209F0BECE84E11A
:10F5D0000E9467F88091070290910802892B09F434
:10F5E00046C000E010E0209105013091060117C0EF
:10F5F000F90184910E9467F820910501309106017C
:10F600002F5F3F4F30930601209305010F5F1F4F7F
:10F6100080910702909108020817190740F5809120
:10F620000B0280FD66C081FFE3CFC901A0E0B0E01E
:10F6300080509040AF4FBF4FABBFFC0187910E94FD
:10F6400067F8DACF81E00E944AF97FCE0E94CBF8BA
:10F65000803209F0A7CE84E10E9467F88EE10E9413
:10F6600067F887E90E9467F882E00E9467F880E106
:10F670000E9467F86ACE80E10E944AF966CE0E9435
:10F68000CBF8813209F061CE0E94CBF8813209F0CB
:10F690005CCEA39AAB98109209028AE00E9467F8A8
:10F6A0008DE00E9467F88AE30E9467F880E20E947A
:10F6B00067F80E94CBF8182F0E9467F8143709F4F6
:10F6C000BEC0123709F4C7C0173709F4DAC01537BE
:10F6D00009F4ACC0123609F4EBC01A36F1F6AD9A53
:10F6E000A59AA39AAB9AE0910301F09104010995C0
:10F6F000D4CFC9010E9471FC0E9467F820910501D6
:10F70000309106012F5F3F4F309306012093050192
:10F710007DCF87E90E944AF918CE80910B02816063
:10F7200080930B02D5CE80910B02826080930B02F6
:10F7300039CF80910B02816080930B0243CF80917F
:10F7400006018823880F880B8F2180930A028BBFC4
:10F750008091050190910601880F991F90930601F1
:10F76000809305018091070280FF09C08091070204
:10F770009091080201969093080280930702F894F2
:10F78000E199FECF1127E0910501F0910601C7E054
:10F79000D1E08091070290910802103091F400911D
:10F7A000680001700130D9F303E000936800E89528
:10F7B0000091680001700130D9F301E10093680005
:10F7C000E895099019900091680001700130D9F313
:10F7D00001E000936800E8951395103898F0112720
:10F7E0000091680001700130D9F305E000936800D2
:10F7F000E8950091680001700130D9F301E10093B0
:10F800006800E8953296029709F0C7CF103011F0E2
:10F810000296E5CF112484E10E9467F880E10E94FE
:10F8200067F893CD8EE10E944AF98FCD0E94CBF804
:10F830000E9467F80E94CBF80E9467F8F7CF9B9B65
:10F8400005C0AB9881E30E9467F827CFAB9A80E3AD
:10F850000E9467F822CF0E94CBF80E9467F80E94AE
:10F8600081F9182F0E9481F9082F8DE30E9467F813
:10F87000F12EEE24F701E00FF11D80810E947AF84D
:10F880000CCF0E94CBF80E9467F80E9481F9182FD4
:10F890000E9481F9082F0E94CBF80E9467F80E940D
:10F8A00081F9D12ECC24F601E00FF11D8083F5CE35
:10F8B00082E60E9467F885E70E9467F883E70E9466
:10F8C00067F880E885BF10926D0010926C0080E0B0
:10F8D00091E1FC01819180E091E13097D1F3CF017A
:10F8E000F8CFE199FECF9FBB8EBBE09A99278DB3ED
:10F8F0000895262FE199FECF9FBB8EBB2DBB0FB67F
:10F90000F894E29AE19A0FBE01960895F894FFCF19
:02F91000800174
:040000031000F000F9
:00000001FF
